:100000000C9484020C9459260C94BC020C94BC02EF
:100010000C94BC020C94BC020C94BC020C94BC0268
:100020000C94BC020C94BC020C94F8200C94B420E8
:100030000C94F5210C94BC020C94BC020C94BC02F0
:100040000C94BC020C94BC020C94BC020C94BC0238
:100050000C94BC020C94D1210C94BC020C94BC02F4
:100060000C94BC020C94BC020C94BC020C94BC0218
:100070000C94BC020C94BC020C94BC020C94BC0208
:100080000C94BC020C94BC020C94BC020C94BC02F8
:100090000C94BC020C94BC020C94BC020C94BC02E8
:1000A0000C94BC020C94BC020C94BC02A800290065
:1000B00035001E001F002000210022004A00000021
:1000C0002B0014001A000800150017004D00000056
:1000D000390004001600070009000A004B00000068
:1000E000E1001D001B000600190005004E00000085
:1000F000E0002152E300E2002C002C002300240049
:100100002500260027002D002E002A001C001800C4
:100110000C00120013002F00300031000B000D0006
:100120000E000F0033003400000028001100100002
:10013000360037003800E500000061522C002C002A
:100140000000E600E70076000000E400A8000100DF
:1001500001003A003B003C003D003E0020780000DA
:100160000100BE00BD000100010001002178000077
:1001700001002678257801000100010022780000A6
:10018000010028782778010001000100000000002C
:100190000100010001000100010001003F004000DA
:1001A000410042004300440045004C00240025006B
:1001B0002600000052000000000001002100220083
:1001C0002300500051004F00000001001E001F00DE
:1001D00020000100010001000000010000002700D4
:1001E0000000630001000100000001001E0F050077
:1001F000047F3F1F643214643214783C1E1E140ABC
:1002000005000101010101010101010202020202D6
:1002100002020202030303030303030304040404AE
:100220000404040505050505060606060607070776
:10023000070708080808090909090A0A0A0B0B0B2D
:100240000C0C0C0D0D0D0E0E0E0F0F0F10101111CA
:10025000111212131314141515161617171818194E
:10026000191A1A1B1B1C1D1D1E1E1F2020212222B5
:10027000232424252626272829292A2B2C2D2D2EF8
:100280002F30313232333435363738393A3B3C3D12
:100290003E3F404142434445464748494A4C4D4E03
:1002A0004F50515354555658595A5B5D5E5F6162C9
:1002B00064656668696B6C6D6F7072737577787A58
:1002C0007B7D7E8082838587888A8C8E8F919395B3
:1002D00096989A9C9EA0A2A3A5A7A9ABADAFB1B3D7
:1002E000B5B7BABCBEC0C2C4C6C9CBCDCFD1D4D6B7
:1002F000D8DBDDDFE2E4E7E9EBEEF0F3F5F8FAFD59
:10030000FFFFAA7F5540000102030C0D0E0F0405EC
:10031000060708090A0B2223252628292A2C2D2F17
:100320003032333536383A3B3D3E4042434547490B
:100330004A4C4E5051535557595A5C5E6062646640
:1003400068696B6D6F71737577797B7D7F8183854C
:1003500087898A8C8E90929496989A9C9E9FA1A34E
:10036000A5A7A8AAACAEAFB1B3B4B6B8B9BBBCBE72
:10037000BFC1C2C3C5C6C7C9CACBCCCDCED0D1D2EE
:10038000D2D3D4D5D6D7D7D8D9D9DADADBDBDBDCF0
:10039000DCDCDCDCDDDDDDDDDCDCDCDCDCDBDBDB9C
:1003A000DADAD9D9D8D7D7D6D5D4D3D2D2D1D0CEFC
:1003B000CDCCCBCAC9C7C6C5C3C2C1BFBEBCBBB901
:1003C000B8B6B4B3B1AFAEACAAA8A7A5A3A19F9E7F
:1003D0009C9A98969492908E8C8A89878583817F47
:1003E0007D7B79777573716F6D6B69686664626028
:1003F0005E5C5A5957555351504E4C4A49474543F4
:1004000042403E3D3B3A3836353332302F2D2C2A90
:1004100029282625232205010980A1018503190128
:100420002AB700150126B700950175108100C00597
:100430000C0901A101850419012AA002150126A0B9
:1004400002950175108100C005010906A10105078B
:1004500019E029E71500250195087501810295012C
:10046000750881010507190029FF150026FF009571
:100470000675088100050819012905950575019182
:1004800002950175039101C009023B00020100A021
:10049000FA09040000010301010009211101000112
:1004A000224000070581030800010904010001033F
:1004B000000000092111010001223200070582031A
:1004C000200001120100020000000810CB581200A9
:1004D00001010200011C0346006F006C0064004B28
:1004E00000420020005200650076002E00200031FE
:1004F0000000000E034B0065006500620069006F9C
:10050000000000040309040011241FBECFEFDAE04D
:10051000DEBFCDBF04B603FE18C080917C0390916E
:100520007D03A0917E03B0917F038730904BA7405D
:10053000B04B59F410927C0310927D0310927E030D
:1005400010927F03E0E0F8E3099523E0A8EDB1E025
:1005500001C01D92AC37B207E1F711E0A0E0B1E0B5
:10056000EAE0F3E502C005900D92A83DB107D9F786
:100570000E941C220C942F290C940000E8EDF0E05E
:1005800080818E7F80831092E2001092DA001092B8
:10059000E100A0EEB0E08C9181608C9380818F7738
:1005A000808319BCA7EDB0E08C918E7F8C93808105
:1005B0008F7E80831092620308952091E400309131
:1005C000E50095E6A9012091EC00822F817020FFC3
:1005D00006C08091E80080FF06C080E00895209169
:1005E000E80022FD1AC080916F03882389F08530CE
:1005F00089F08091EB0085FD0FC02091E4003091DF
:10060000E50042175307F9F29150E1F684E00895AE
:1006100082E0089583E0089581E008958091710358
:1006200087FF13C08091E80082FF06C08091E80038
:100630008B778093E80004C080916F038111F2CF23
:10064000089580916F038823D9F38091E80080FF9B
:10065000F8CF8091E8008E77ECCF982F9093E90047
:10066000242F762F50E0891731F07091EC00209103
:10067000ED005091F00021FD07C09F5F973071F7AA
:100680008093E90081E008953091EB003E7F309344
:10069000EB003091ED003D7F3093ED003091EB00A9
:1006A00031603093EB007093EC002093ED00509399
:1006B000F0002091EE0027FDE0CF80E00895B0E04B
:1006C000A0E0E5E6F3E00C947F27C8EDD0E0888158
:1006D0008F7E8883E7EDF0E080818160808384E015
:1006E00082BF81E08093620388818E7F888302EEDF
:1006F00010E0F80110821092DA0081EEC82ED12CA1
:10070000F601108288818F7788838881806888834A
:1007100088818F7D888319BC10926F0310927003BB
:1007200010926E0310926D0390EEE92EF12CF701FA
:1007300080818B7F808388818160888342E060E054
:1007400080E00E942D03F60180818E7F8083F80176
:10075000808181608083808188608083F7018081CF
:100760008E7F8083888180618883CDB7DEB7E8E0A3
:100770000C949B27FC018091770390917803861756
:100780009707A0F06115710529F49091E8009E7714
:100790009093E80090E06115710551F4911108C043
:1007A0008091E80082FF34C080E00895BC01F2CF60
:1007B00080916F038823C1F18530C1F18091E800F9
:1007C00083FD30C08091E80082FDEACF8091E8008F
:1007D00080FFE1CF8091F3002091F200382F611566
:1007E000710519F02830310558F091E028303105B5
:1007F00009F090E02091E8002E772093E800CBCF1D
:1008000081918093F100615071092F5F3F4FE7CFD5
:1008100080916F03882341F0853041F08091E8009A
:1008200083FFBECF81E0089582E0089583E00895BC
:10083000089508958091640308959C014FB7F8943A
:1008400080915E0390915F03A0916003B09161037A
:100850004FBF821B930B08952FB7F89460915E03EE
:1008600070915F0380916003909161032FBF0895A1
:100870002FB7F89480915E0390915F03A09160037D
:10088000B09161032FBF0895A3E0B0E0EAE4F4E083
:100890000C94852720915B0330915C03281739075E
:1008A000A1F090935C0380935B03E0915903F09176
:1008B0005A03309751F024E029839B838A83068072
:1008C000F781E02DCE01019609952396E2E00C9484
:1008D000A127A3E0B0E0EFE6F4E00C948527209197
:1008E00057033091580328173907A1F09093580304
:1008F00080935703E0915903F0915A03309751F0D8
:1009000023E029839B838A830680F781E02DCE0133
:10091000019609952396E2E00C94A127FC01680F4B
:10092000791F8FEF91E32191822728E030E087FF44
:1009300009C0880F892721503109C9F7E617F70741
:1009400091F70895880FF7CF8F929F92AF92BF9241
:10095000EF92FF920F931F93CF93DF938430B8F5FC
:10096000811136C0909180009F77909380002D98E0
:10097000A0918600B0918700282F30E00E942029A6
:1009800023E030E040E050E00E94FE2889019A0117
:1009900080918600909187006CE070E00E94C827EB
:1009A00060177107D8F0C80169E070E00E94C8279D
:1009B0007093890060938800DF91CF911F910F9110
:1009C000FF90EF90BF90AF909F908F90089583E03D
:1009D00090918000906890938000CACF80918600AB
:1009E00090918700E0908600F0908700E09186006B
:1009F000F0918700C6E0D0E0BE010E94C827060F34
:100A0000171F211D311D4801590185E0880C991CD3
:100A1000AA1CBB1C8A95D1F7C701BE010E94C8273A
:100A20009F0150E040E0260F371F411D511DC501B9
:100A3000B4010E94FE2849015A01E0918600F0911C
:100A40008700CA01B9010E94AC279B01AC01DF01FC
:100A50000E94EB289B01AC01C501B4010E94AC27A8
:100A60002FE096958795779567952A95D1F7009110
:100A700086001091870030E020E00617170728074E
:100A8000390708F095CF609186007091870090CF6C
:100A9000FA01811101C0FB0109950895EBECF2E028
:100AA0001182828184608283089580915103982FFE
:100AB0009E7F29F48170826080935103089586356A
:100AC000E8F381708465F8CFAF92BF92DF92EF9226
:100AD000FF920F931F93CF93DF93082F162FE901F7
:100AE000E42FF0E0EF5FFD4F611110C0E4915E2F45
:100AF0004E2F4983E8835A83DF91CF911F910F9145
:100B0000FF90EF90DF90BF90AF900895E62EF12C0C
:100B10004491D42EE42FF0E026E0829FC0011124FE
:100B20002FEF30E0B9010E94C827802F90E0880F96
:100B3000991F55E5569FD001579FB00D11248A1B70
:100B40009B0B982F990F890F5901AE18BF08AE9EC5
:100B5000D001AF9EB00DBE9EB00D11245B2F189F2B
:100B600080011124012F11275901A01AB10AAE9E4C
:100B70008001AF9E100DBE9E100D11245901A81AC0
:100B8000B108AE9CC001AF9C900DBE9C900D11248D
:100B9000892F9927281B390B2E9FC0012F9F900D5D
:100BA0003E9F900D1124E92F62307105A1F050F4A1
:100BB0006115710509F49DCF6130710581F0EB2F4E
:100BC000512F97CF6430710569F080F06630710560
:100BD00009F48FCFF4CFE42F4B2F592F8ACFE42F76
:100BE000412F87CFEB2F542F492F83CF4B2F5D2DD4
:100BF000E12F7FCF80E00895F894E82FE295EF7021
:100C0000F0E031A1282F2F7081E090E001C0880F23
:100C10002A95EAF7982F9095932391A392A1892B77
:100C200082A37894089590919F0292FF06C0282F86
:100C300028712830F9F4877F846093FF06C0282F3D
:100C400028712831F1F4877E84612091A00220FF71
:100C500006C0382F38713830D9F4877F816021FF82
:100C600006C0282F28712831D1F4877E816194FD38
:100C7000877E0895282F24712430F9F68B7F8860B1
:100C8000DCCF282F2471243101F78B7E8861DDCFE2
:100C9000382F3171313019F78E7F8860E0CF282FDF
:100CA0002171213121F78E7E8861E1CF7A30C8F43D
:100CB0006830B8F48230A8F4E72FF0E09AE0899F1A
:100CC000E00DF11D112483E0EE0FFF1F8A95E1F77F
:100CD000E60FF11DEE0FFF1FE455FF4F8591949134
:100CE000089580E090E00895CF93DF93EC0182387F
:100CF0009105B9F108F041C08133910509F49FC015
:100D000050F58932910509F48FC08A9709F49EC085
:100D1000C11520E5D20708F0BDC0C11530E4D307E6
:100D200008F00AC1C03ED10508F0A5C0CD3CD105F0
:100D300008F000C1C83AD10508F08FC0C53AD10506
:100D400008F0F0C0C130D10539F1209729F1C43045
:100D5000D10510F546C08533910509F460C0C997E7
:100D6000B9F680919F02837009F044C18091A0027E
:100D700083FF12C0C9E2D0E00FC0833E9105A1F10C
:100D800078F4803E910509F1823E910509F0C0CFCB
:100D900080919F0282FD21C0CE01DF91CF91089505
:100DA000863E910561F1873E910571F1843E910582
:100DB00009F0AECF8091A00281FFEECF80919F021B
:100DC000C7EED0E084FD0DC0E7CF80919F0280FD8B
:100DD00033C09091A00290FFDFCFC3EED0E084FF3C
:100DE000DBCFD0E0C0E0D8CF80919F0282FDFFC072
:100DF0009091A00290FDFEC084FFCECFF2CF8091F3
:100E00009F0283FDDDCFC8CF80919F0283FDF5C097
:100E10009091A00291FFF0CFC4EED0E0BDCF8091C1
:100E20009F0285FFB9CFA6CF80919F0285FDE8C0C4
:100E30008091A00283FFB0CFC9E3D0E0ADCF809115
:100E40009F0286FFA9CFCAE2D0E0A6CF80919F0281
:100E500086FFA2CFC1E3D0E09FCFC13CD10508F609
:100E6000C85AD0E0CC0FDD1FC45ADE4F0990D8819C
:100E7000C02DD46491CFC11540E2D40708F0AAC0B8
:100E8000C11581E0D80708F087CFC83ED10508F426
:100E900083CFA7CFC03622E5D20718F5C03432E59C
:100EA000D30708F053C0C03242E5D40708F047C06A
:100EB000C11582E5D80708F47FC02C2F269526950A
:100EC00040E2249F900111248C2F8370C1E0D0E078
:100ED00002C0CC0FDD1F8A95E2F7C22BD32BDD6851
:100EE0005BCFC03A22E5D20760F4C03832E5D307C1
:100EF00008F441C0CF71D0E0DC2FCC27C46FD06A9A
:100F00004BCFC03C42E5D40708F44AC0C03E82E55E
:100F1000D80708F066CFDC2FCC27CC27DF71C06F55
:100F2000D06A3ACFC55AD0E0C75ADE4FC881D0E068
:100F3000D06432CFD06530CFDF70D06A2DCFCF7183
:100F4000D0E0DC2FCC27C16FD06A26CF2C2F26957E
:100F50002695277080E2289F900111248C2F8370A2
:100F6000C1E0D0E002C0CC0FDD1F8A95E2F7C22BB2
:100F7000D32BDC6811CF2C2F26952695277040E2C5
:100F8000249F900111248C2F8370C1E0D0E002C017
:100F9000CC0FDD1F8A95E2F7C22BD32BDA68FCCE8B
:100FA0008C2F8F710E941306C82FD0E0DC2FCC2726
:100FB000CC27DF71D062F0CE8C2F8F710E94130688
:100FC00035E0D695C7953A95E1F7CF709C2FEC01A7
:100FD000D069E2CE8D2F8F710E94130690E0982F7A
:100FE000882788279F719C012C2BE901E3CFC2EE53
:100FF000D0E0D2CEC0EED0E0CFCEC6EED0E0CCCEA8
:10100000C5E3D0E0C9CE0E942C04089580914E0221
:10101000811110924E020895809590914D0298236F
:1010200090934D020895ECEDF1E09191891303C086
:10103000DF0111971C9291E0E23EF907B1F70895A4
:10104000ACEDB1E0EFEF90E02D91821751F0EF3F62
:1010500019F4211101C0E92F9F5F9630A9F7EF3FE6
:1010600009F408950E2E000CFF0BE652FE4F82830A
:1010700008958091420290911102981301C0089541
:101080008F5F8770FACFB0E0A0E0E9E4F8E00C945D
:101090007E277C0100919D0210919E0280914F025B
:1010A00090915002082B192BCFE0D0E0CC24C394B0
:1010B000D12CBC2EC6010C2E02C0880F991F0A9499
:1010C000E2F780239123892B49F4219790F7B12CE3
:1010D0008B2DCDB7DEB7E9E00C949A27B7018C2FA2
:1010E0000E9456060E947406019779F3F1CFCF93C0
:1010F000DF93EC010E944308BE010E9456060E9445
:101100007406DF91CF9108959A3070F5883060F5BC
:1011100028E0929FF0011124E80FF11D6E2F6770F7
:1011200083E0F695E7958A95E1F7EE0FFF1FEE0F46
:10113000FF1FED51FE4F50E040E080E0219130E094
:10114000062E02C0369527950A94E2F721703327C0
:10115000042E01C0220F0A94EAF7822B4F5F5F4FE3
:101160004430510559F7089580E008959A3090F57C
:10117000883080F528E0929FF0011124E80FF11DDE
:101180002E2F277041E001C0440F2A95EAF783E033
:10119000F695E7958A95E1F7EE0FFF1FEE0FFF1F1B
:1011A000ED51FE4F30E020E070E05191DF011197EA
:1011B000CB01022E02C0969587950A94E2F78170C2
:1011C00081958527842385278C932F5F3F4F24307B
:1011D000310559F7089590939E0280939D020895DA
:1011E00021E030E002C0220F331F8A95E2F72095FC
:1011F000309580919D0290919E02822393230E94BC
:10120000EB080895909143028095892380934302CF
:10121000282F277091F4282F082E000C330B9217DB
:10122000130659F09091A00292FF07C0859585950D
:1012300085950E94F00810924302089521E030E065
:1012400002C0220F331F8A95E2F780919D02909190
:101250009E02822B932B0E94EB08089590935002DC
:1012600080934F020895FC0183819481892B29F09A
:101270008081918189238F3F51F480E00895843FDC
:10128000E1F717C0883EA8F0813FB9F712C080810E
:1012900091810E94770892959F70963099F358F447
:1012A000925F9F70923048F7803F19F040F7883E78
:1012B00020F781E008959A5FF4CF0F931F93CF93A7
:1012C000DF938B01EA0190916F03943061F5809375
:1012D000E9008FEF9091E800815095FD06C095EDF3
:1012E0009A95F1F700008111F5CF8091E80085FF14
:1012F0001AC00E94DD02811111C08091E80085FDB5
:1013000006C08091E8008E778093E800F2CFF80164
:1013100081918F018093F100219779F78091E80006
:101320008E778093E800DF91CF911F910F91089500
:1013300043E050E0BC0182E00E945D090895CF9334
:10134000DF93EC0148E050E0BC0181E00E945D09C0
:1013500088E0FE01A5E6B3E001900D928A95E1F7E1
:10136000DF91CF91089581E08093E00080E2809347
:10137000D8001092C9008FE19EE40197F1F700C0F8
:10138000000087E090EBDC0180937C0390937D0369
:10139000A0937E03B0937F0388E19CE00FB6F8949E
:1013A000A895809360000FBE90936000FFCFCF920E
:1013B000DF92EF920F931F93CF93DF93CDB7DEB7FA
:1013C000E0970FB6F894DEBF0FBECDBF6091540119
:1013D0008091510380FF4BC0E6E0F3E09E012F5F58
:1013E0003F4F8E010F5C1F4FC901A4914A2F50E05F
:1013F000DA01AA0FBB1FA40FB51FAF52BD4FCD908E
:10140000DD90EC90D901CD92DD92ED929D01319667
:10141000A017B10751F72091530143E0249F800D9D
:10142000911D11246E9A2EB12F7B3EB130645FB7AF
:10143000F894FC01649FE00DF11D1124BF01861793
:10144000970741F55FBFEFE5F4E03197F1F700C092
:101450000000E0960FB6F894DEBF0FBECDBFDF915F
:10146000CF911F910F91EF90DF90CF9008958091D1
:1014700055019091560123E0829FF0011124EF5213
:10148000FD4F891708F0A8CF1182108212828F5F5A
:101490003396F7CFDC014D91CD01E8E03EB9000075
:1014A00000C047FF2EB9440F000000C000C000C0BC
:1014B0002EB900C0EA9591F7C2CF0F931F93CF9337
:1014C000DF93EC0110E000E09091570190171106B6
:1014D00009F06CF40E94D7098C8190E0019681702C
:1014E00099278C83DF91CF911F910F9108952091BF
:1014F0005501A801420F511D9A01220F331F240FDD
:10150000351F2F523D4F4C81609153038091520300
:1015100096959017110651F04CF0442349F04091F4
:1015200054030E9464050F5F1F4FCECF4423B9F3CD
:1015300040E0F7CFB0E0A0E0E0EAFAE00C947B27CF
:10154000EC014C81042F10E09801D8010E94202961
:101550009B01AC010E94EB284B015C01E0E2F0E052
:10156000E01BF10BA5E5B0E0AC019B010E94EB286C
:101570006B017C019F01DF010E94F6279B01AC01FA
:101580000E94F6289B01AC01280D391D4A1D5B1DE8
:10159000C701B6010E94FE28F22E822F90E039E2A8
:1015A0003F1520F143E0249F9001112435952795A4
:1015B000122F109500E085E5E82EEF188091570175
:1015C000081718F10E94D7099C8181E0992319F02E
:1015D000903219F48FEF8093520180915201890F5C
:1015E0008C83CDB7DEB7ECE00C94972725E530E08F
:1015F000B901681B790B9B01220F331F260F371F80
:1016000037FFD4CF2F5F3F4FD1CF8E2D01FD8F2DD0
:1016100020915501622F600F7727771F9B01220FC2
:10162000331F260F371F2F523D4F412F6091530319
:101630000E9464050F5FC2CFEF92FF920F931F933A
:10164000CF93DF93EC018C81811109C081E08C8301
:101650001092CF0292E090935101809350018091BB
:1016600055019091560123E0829FF0011124EF5221
:10167000FD4F891758F110E003E0609157011617EC
:1016800058F10E94D709809150012091CF02280F74
:101690002093CF0290915101980F90935101191608
:1016A00054F4022E000C330B409157014150550B5E
:1016B0002417350734F0819580935001813009F467
:1016C0001C82CDB7DEB7E6E00C949D271182108214
:1016D00012828F5F3396CDCFE12EF12C70E0C701DF
:1016E0000E94DC2720915501820F482F50E0209165
:1016F000CF02022E000C330BE216F306BCF0209151
:101700005101022E000C330B2E153F057CF0809FFB
:10171000900111242F523D4F409154036091530387
:10172000809152030E9464051F5FA7CFFA01EE0F5C
:10173000FF1FE40FF51FEF52FD4F1182108212823E
:10174000F3CFB0E0A0E0E7EAFBE00C947C27EC01EB
:101750008A81BB24BA9480FD02C0BB24B394A090BC
:1017600057018C81811109C081E0B8121EC08FEF32
:101770008A0D8093CE0281E08C83F12CE12CEA1457
:10178000B8F00E94D7098091CE0291E0B91254C0FE
:1017900081114DC08091570181508093CE021C82EF
:1017A000CDB7DEB7EBE00C9498271092CE02E3CFD2
:1017B000009155010E0D1F2D111DC801880F991F95
:1017C000080F191F0F521D4FF8011182108212824B
:1017D00034E0C32ED12C912C8091CE02890D813121
:1017E00014F18F70082E000C990B8E159F0591F443
:1017F000809154038C9DA0018D9D500D1124559511
:1018000047955595479598016091530380915203F0
:101810000E9464059B0CF1E0CF1AD108E9F68FEF26
:10182000E81AF80AACCF87FFDDCF8A0DDBCF8150F5
:101830008093CE02BC82B4CF90E0019660915701B4
:1018400070E00E94DC278093CE028C83A9CFEF92B8
:10185000FF921F93CF93DF93EC0110E0EE24EA9404
:10186000F12C60915701161770F00E94D7099A81E8
:101870008C8190FF27C08F5F8C83DF91CF911F9168
:10188000FF90EF90089520915501422F410F552769
:10189000551FCA019A01220F331F280F391F2F52DB
:1018A0003D4F70E0C7010E94DC27962F8C8140914C
:1018B000540360915303199F800D11240E94640505
:1018C0001F5FCFCF8150D8CF9091510390FF0EC0B2
:1018D000909155012091560133E0939FF00111241E
:1018E000EF52FD4F921718F00E94D7090895818397
:1018F000608342839F5F3396F5CFA3E0B0E0E3E8D7
:10190000FCE00C9483278C018091D00281110AC0E5
:101910009E012F5F3F4F4FEF6FEF0E9464058A815A
:101920008093D002F8016481613069F08091D00227
:1019300040E0662361F040E0623011F44091D00253
:1019400080E060E004C06091D00240E080E00E944E
:10195000640CF801848190E0019663E070E00E94DD
:10196000DC2784832396E4E00C949F27A3E0B0E077
:10197000ECEBFCE00C9485279091510390FF0AC09A
:101980009E012F5F3F4F0E9464054B8169818A81D0
:101990000E94640C2396E2E00C94A127CF93DF937E
:1019A000EC01E1E5F3E0438162818C810E94B60C99
:1019B0008C818F5F8C83DF91CF910895CF93DF93DC
:1019C000EC01EC81F0E0EA5EFC4F4491E1E5F3E0EC
:1019D000628181810E94B60C8C818F5F8C83DF9144
:1019E000CF910895B0E0A0E0E8EFFCE00C947D27F3
:1019F0007C015B016A0180918A0201E010E08A307B
:101A000010F40AE010E0C1E0D0E0B501C701F60132
:101A10000995811104C021960C171D072CF4CDB730
:101A2000DEB7EAE00C949927CC9F9001CD9F300D52
:101A3000300D112490E080E045E34A95F1F7000075
:101A4000019682179307C1F7E0CF80915B02811165
:101A500010C08091D80080618093D8008AE18A9577
:101A6000F1F700C08091D90080FF0AC081E0809327
:101A70005B0281E090915B02913009F080E0089573
:101A800082E080935B020E94BE0210926F03F1CF4E
:101A90000E94250D882359F0E0915903F0915A03D3
:101AA000309729F00190F081E02D0995089580E0AC
:101AB00008950F931F930E94250D882329F00E94FB
:101AC0002C041F910F9108950E942C0400918B0209
:101AD00010918C0220918D0230918E02600F711F47
:101AE000821F931FEECF0E94250D882319F00E94BC
:101AF000380408950E94590DCB010895682F86E09F
:101B000090E00E9498280895282F220F220F220F7C
:101B1000909156039770922B90935603987F21E0F3
:101B200009F420E09091560320FB90F9909356031E
:101B30000E94A404809156030E947E0D0895809116
:101B4000560380FD13C0816080935603813019F4E1
:101B500089E080935603809156030E947E0D809108
:101B600056038695869586950E94A4040895B0E054
:101B7000A0E0EDEBFDE00C947727FC01628044804F
:101B800081E08483E6E1F3E07490E5E9F3E0E49139
:101B9000C0915403C695C158D0E0CC0FDD1FCD2FA6
:101BA000DD27812C75E0972EAA24AA94B12C552408
:101BB0005A94E719EE2EF12C80915701881638F0CF
:101BC0000E94D709CDB7DEB7E0E10C949327C82C6B
:101BD000D12C82E0861568F09C9CF0019D9CF00D54
:101BE0001124EF5FFC4F8091520380838091530357
:101BF0008183411023C09C9CF0019D9CF00D112419
:101C0000EF5FFC4F1382128220915501C601820FB3
:101C1000911D9C01220F331F280F391F2F523D4F5A
:101C20009C9CF0019D9CF00D1124EF5FFC4F4281C4
:101C3000618180810E9464058394BECF9C9C800159
:101C40009D9C100D11240F5F1C4FF8018381882388
:101C5000F1F081508383859DC0011124648170E07F
:101C60000E94C827FB01FF27EA5EFC4F8491E82F02
:101C7000E719E59DC0011124B7010E94C827809192
:101C80005403689FB0011124F8017283BDCF0E94F4
:101C90005128B5010E94DC278C179D070CF0B4CFAA
:101CA000F2E0F61598F40E945128B5010E94DC2755
:101CB000F80180830E945128209153032695622FBA
:101CC00070E00E94DC27280FF80121839C9CF00122
:101CD0009D9CF00D1124EF5FFC4F12828091540304
:101CE000893C58F088EC9C9CF0019D9CF00D1124DF
:101CF000EF5FFC4F8483838387CF8431A0F784E137
:101D0000F2CF60915103669570E04BE050E085E4BE
:101D100091E00E946128892B19F481E08093CC0224
:101D20000E94730D9093C6028093C5028091CD02EC
:101D300084608093CD020895CF92DF92EF92FF925C
:101D40006B017C010E945505B701A60188E090E077
:101D50000E94AA28FF90EF90DF90CF900895A3E013
:101D6000B0E0E5EBFEE00C947E27082FD62EF42E93
:101D7000C22E9091510390FF3CC020915203281332
:101D800008C080915303861304C0809154038417C4
:101D900029F08091CD0282608093CD02E92FE695F3
:101DA000AE2FB0E0A355BE4F8C918093CB029E7FA7
:101DB000923019F59E012F5F3F4F4F2D6D2D802FD3
:101DC0000E9464054B8169818A810E94640C0093A2
:101DD0005203D0925303F0925403CC2051F06091FF
:101DE00051037091520380915303909154030E94C8
:101DF0009C0E2396E9E00C949A27823019F4F09017
:101E00005403E5CF8630A1F1893091F18931F9F69B
:101E1000E9516E2F6170B62EE695F0E0EF5FFC4F52
:101E20001491E12C60915701E61618F00E94D70931
:101E3000CECFE19EC001112470E00E94C827802F00
:101E4000B11014C0860F20915501622F6E0D7727B7
:101E5000771F9B01220F331F260F371F2F523D4F35
:101E60004F2D6D2D0E946405E394DCCF861BEBCFD4
:101E7000022FADCFE1E5F3E0438121E1421B08F4FD
:101E800040E021E0628181810E94AF0E0895E1E58A
:101E9000F3E0438121E1420F08F44FEF21E062813A
:101EA00081810E94AF0E0895E1E5F3E0628121E1B6
:101EB000621B08F460E021E0438181810E94AF0E43
:101EC0000895E1E5F3E0628121E1620F08F46FEF2C
:101ED00021E0438181810E94AF0E0895E1E5F3E0A6
:101EE000818121E04381628188500E94AF0E089574
:101EF000E1E5F3E0818121E043816281885F0E9416
:101F0000AF0E089580915503882319F08150809376
:101F10005503609151037091520380915303909146
:101F200054030E949C0E089580915503833018F449
:101F30008F5F80935503609151037091520380919C
:101F40005303909154030E949C0E08959091510365
:101F500090FF31C0917081112FC092609093510316
:101F60008091CD0281608093CD02662351F0609113
:101F700051037091520380915303909154030E9436
:101F80009C0E60915103669570E04BE050E085E453
:101F900091E00E946128892BB1F00E944E0581E0FA
:101FA0008093C80220E040915403609153038091D4
:101FB00052030E94AF0E08958B3210F09465CECF7D
:101FC000880F982BCBCF0E94810EE9CF80915103CF
:101FD0008695815009F48AE261E00E94A60F089577
:101FE0008091510386958F5F8B3208F081E061E02C
:101FF0000E94A60F08959091510390FF08C09695F6
:10200000981728F0961718F40E94F00F089561E0D1
:102010000E94A60F0895E1E5F3E087E18083118235
:102020008FEF828383831482ABECB2E012968C91A3
:102030001297836012968C93608171818281938163
:102040000E949C0E089567EE7EEF90E080E00E9473
:10205000B62860E082E090E00E94982860E083E08B
:1020600090E00E9498281092500210924F0260E077
:1020700074E184E090E00E94B62860E086E090E0A1
:102080000E9498286FEF87E090E00E94982840E037
:1020900050E0BA0188E090E00E94AA2860E08DE05C
:1020A00090E00E94982840E050E0BA0188E190E07A
:1020B0000E94AA2860E087E190E00E94982840E012
:1020C00050E0BA018CE190E00E94AA2870E060E044
:1020D00080E290E00E94B62840E050E0BA0188E13A
:1020E00090E00E94AA280E949F0D83E00E94840D28
:1020F00040E050E0BA018FE090E00E94AA2840E062
:1021000050E0BA0183E190E00E94AA28089590E08F
:1021100080E00E949228873E9E4F51F00E9423103B
:102120008091560384708961809356030E947E0DCE
:1021300086E090E00E94842880935603803220F04D
:10214000877088618093560390915603892F817020
:1021500090FF04C0892F8695869586950E94A404D9
:1021600008959091A00292FB222720F9281779F078
:1021700080FB92F99093A00260919F027091A0025F
:1021800084E090E00E94B62882E00E94020908954F
:10219000A4E0B0E0EEECF0E10C94842740917E02E4
:1021A00050917F0260918002709181022FB7F89464
:1021B00080915E0390915F03A0916003B0916103F1
:1021C0002FBF841B950BA60BB70B11E0843691052E
:1021D000A105B10570F10E94590D6E5F7F4F8F4FC1
:1021E0009F4F69837A838B839C8380912501909193
:1021F000260187599D4F4091240150E045305105FB
:1022000010F044E050E0BE016F5F7F4F0E947B28DA
:1022100084E090E00E94FF26182F882351F00E944E
:102220002C0460937E0270937F02809380029093CF
:102230008102812F2496E3E00C94A0274F925F92B5
:102240006F927F928F929F92AF92BF92EF92FF9286
:102250000F931F93CF93DF937B01FB01408051804D
:10226000628073809FB7F89480905E0390905F03C4
:10227000A0906003B09061039FBF84189508A608E2
:10228000B708F4E68F169104A104B10418F4C1E074
:10229000442329F1C82F880FDD0BFE0183E0EE0FE8
:1022A000FF1F8A95E1F7EC5FFE4F8181928187598C
:1022B0009D4F408150E00417150708F4A801B901AB
:1022C0000E947B28CE010E94FF26C82F882339F068
:1022D0000E942C04F70160837183828393838C2F87
:1022E000DF91CF911F910F91FF90EF90BF90AF9032
:1022F0009F908F907F906F905F904F900895A8E08F
:10230000B0E0E5E8F1E10C94832785E0E1E5F3E056
:10231000DE01119601900D928A95E1F78091CB0232
:102320009091CC02A091CD028E839F83A88741E03B
:102330008885811101C040E008E010E09E012F5F18
:102340003F4F66E872E086E00E941E1181111092F4
:10235000CD022896E4E00C949F27A1E0B0E0E3EBE7
:10236000F1E10C9483278091560380FF18C0869575
:1023700086958695898341E090917502981301C0F6
:1023800040E001E010E09E012F5F3F4F62E872E005
:1023900085E00E941E112196E4E00C949F2780E0C6
:1023A000E9CF4F925F927F928F929F92AF92BF92AE
:1023B000CF92DF92EF92FF920F931F93CF93DF9311
:1023C0000F92CDB7DEB7C62E4A015901482E880FAD
:1023D0005508C2010E94FF26782E882309F480C088
:1023E000C20133E0880F991F3A95E1F7FC01EC5FD9
:1023F000FE4F438150E04115510511F041E050E09E
:102400008C5F9E4FFC016481758167597D4FCE01C1
:1024100001960E947B28F401408151816281738181
:102420002FB7F89480915E0390915F03A0916003B1
:10243000B09161032FBF841B950BA60BB70B84369D
:102440009105A105B10540F4B701C8010E948E04B1
:102450009981891709F444C00C2C000CDD08C601D1
:102460000E94FF26782E811113C0712C872D0F90AA
:10247000DF91CF911F910F91FF90EF90DF90CF9060
:10248000BF90AF909F908F907F905F904F900895F6
:10249000C60123E0880F991F2A95E1F7FC01EC5F44
:1024A000FE4F438150E0E416F50608F4A7018C5F67
:1024B0009E4FFC016481758167597D4FC5010E9463
:1024C0007B28B701C8010E948E0499818913CDCF62
:1024D0000E942C04F4016083718382839383C6CFAE
:1024E000A701B801C5010E947B28C0CFA5E0B0E0DC
:1024F000ECE7F2E10C947F276B0185E0E82EF12CEC
:102500000AE612E09E012F5F3F4F41E652E061E094
:1025100080E00E94D111882349F095E0FE013196B8
:10252000ACE5B2E001900D929A95E1F795E0ECE50B
:10253000F2E0D60101900D929A95E1F72596E8E038
:102540000C949B27A2E1B0E0E8EAF2E10C947A2730
:102550008E010F5F1F4F8AE0D8011D928A95E9F71F
:1025600080E9C82E81E0D82EF12CE12CAA24A39476
:10257000B12C2DE9822E21E0922EF60181916F017E
:102580008F3F09F442C0F894E82FE295EF70F0E035
:1025900021A18F70A50102C0440F551F8A95E2F753
:1025A000CA01922F982B91A392A18095892382A38F
:1025B000789400C0E5E9F1E0712C31E021912F3FE2
:1025C00009F46BC0A22FA295AF70B0E090968C91E9
:1025D00090E02F7002C0959587952A95E2F780FDCF
:1025E0005CC0832F782A330F8E169F0639F7F601C9
:1025F000319780818F3F11F00E94FC0550EA5A9577
:10260000F1F7F801EE0DFF1D70828FEFE81AF80A5E
:1026100095E0E916F10409F0B0CF4AE050E0B801C6
:1026200081E992E00E946E28009741F02AE0F801CB
:10263000A1E9B2E001900D922A95E1F700919C0288
:10264000892B69F181E0809353020E9438049093B2
:1026500052028093510280915102909152020E9445
:102660001D04059700F110E00C551D4F45E050E0AA
:1026700061E972E0C8010E946E28D12C892B51F0CB
:1026800085E0E1E9F2E0D80101900D928A95E1F749
:10269000DD24D3941092530207C080E0A3CF809131
:1026A00053028111D8CFD12C0E94250DC82EE09164
:1026B0009C02DE011B967D01882309F484C085E01D
:1026C0001D928A95E9F70E2F10E00C551D4F809151
:1026D0008A028A3008F044C046E752E1B701C801D7
:1026E0000E94F20C882309F45DC04DE159E1B70165
:1026F000C8010E94F20C882309F454C048EC50E150
:10270000B701C8010E94F20C882309F44BC04DEABE
:1027100051E1B701C8010E94F20C882309F442C0BC
:102720004FE751E1B701C8010E94F20C8823D1F1B3
:1027300010928A0280919B0290E045E050E0B70140
:102740008C559D4F0E946E2821E020935A02892BC0
:10275000E1F4C12C8C2D8D296296EDE00C94962726
:1027600080915402909155020E941D04843F914033
:1027700008F0B2CF80915A02882359F385E0F7011F
:1027800011928A95E9F710925A02A0919B02B0E04B
:10279000AC55BD4F85E0FE013B9601900D928A95A8
:1027A000E1F7D8CF80918A028F3F31F08F5F80931D
:1027B0008A028A3008F4BECF0E94380490935502F2
:1027C00080935402D7CFF0E0EC55FD4F85E0AAE6A8
:1027D000B2E001900D928A95E1F765E070E08AE63B
:1027E00092E00E948E04809369024091C10250E001
:1027F0006091C00270E064547D4FC7010E947B2845
:102800008B858093700261E070E0C7010E948E04A6
:1028100080936F028090710290907202A090730278
:10282000B09074028091560290915702A091580284
:10283000B091590288169906AA06BB06D1F080927B
:10284000560290925702A0925802B09259020E94EA
:10285000250D81110EC00E942C04861A970AA80A21
:10286000B90A80928B0290928C02A0928D02B09253
:102870008E02809175020E94A40488E0E6E7F2E0EF
:10288000DE011B9601900D928A95E1F72B85822F30
:102890008695FC84ED84BE8409891A8910927D0294
:1028A000112309F457CF10FF0AC09091510320FF64
:1028B0001AC091609093510360E00E94A60F11FF2F
:1028C00006C020E04B2D6E2D8F2D0E94AF0E12FF03
:1028D00004C00023A9F00E94810E13FF3BCF81E0CA
:1028E0008093C80237CF9E7F909351030E944E057C
:1028F0008091CD0281608093CD020E94D709DFCF05
:102900000E944E05EACF80914D0290914C02892B96
:102910008093DA0190914E02992391F0892B809354
:10292000DA0120E08CED91E0FC013191CF01311111
:102930002F5FF1E0823E9F07B9F721110E94060840
:1029400048E050E064E472E08AED91E00E946E2875
:10295000892BA9F088E0EAEDF1E0A4E4B2E001906F
:102960000D928A95E1F7E0915903F0915A0330975F
:1029700031F00280F381E02D8AED91E00995089510
:1029800010924D02ECEDF1E086E0DF011D928A9598
:10299000E9F790E080E00E94690490E080E00E9406
:1029A000440410924C020E9483140895AAE2B0E0FD
:1029B000ECEDF4E10C94842781E793E02091F100A1
:1029C000FC012193CF01F3E089379F07B9F780918C
:1029D0007203833009F470C0B8F4813009F447C041
:1029E000823009F4B1C08091E80083FF7EC28091FB
:1029F0007103909172039A3008F077C2E92FF0E0EA
:102A0000EF5CF64D0C94F0278A3009F48CC08B30C3
:102A100009F46FC0893039F780917103813219F759
:102A200080917503909176030297E8F68091E80013
:102A3000877F8093E8008091E80082FF38C0909102
:102A4000F3008091F200029731F48091F10081301F
:102A500011F0863021F48091F1008093640380911D
:102A6000E8008B778093E8000E940E03BCCF809132
:102A70007103813A09F0B7CF8091E800877F809396
:102A8000E8008091750390917603892B61F468E0EA
:102A900085E693E070E00E94BA038091E8008B77AE
:102AA0008093E800A0CF60E090E080E0F3CF8091D9
:102AB0006F038111C0CF97CF80917103813A09F0E4
:102AC00092CF8091750390917603892B09F08BCF7B
:102AD0008091E800877F8093E8008091E80080FF84
:102AE000FCCF809158018093F1008091E8008E77AF
:102AF000B9CF80917103813209F075CF8091750350
:102B000090917603892B09F06ECF8091E800877F42
:102B10008093E8000E940E03809173038093580114
:102B20000E94C01460CF80917103813209F05BCFA5
:102B30008091E800877F8093E8000E940E038091D7
:102B40007403809363034FCF80917103813A09F03E
:102B50004ACF8091E800877F8093E8008091E80069
:102B600080FFFCCF80916303BECF803899F082381C
:102B700009F0BBC1809175038F70873008F0B5C133
:102B80008093E9008091EB0085FB882780F9109203
:102B9000E90006C080916D0390916E0391118260EF
:102BA0009091E800977F9093E8008093F100109255
:102BB000F1008091E8008E7794C1882309F482C1E6
:102BC000823009F092C180917303811185C1809197
:102BD00075038F702FEF280F263008F086C1809381
:102BE000E9002091EB0020FF77C1933031F4809110
:102BF000EB0080628093EB006FC19091EB009061DD
:102C00009093EB0021E030E001C0220F8A95EAF7B3
:102C10002093EA001092EA008091EB008860EACFEE
:102C2000811163C1109173031F778091E300807855
:102C3000812B8093E3008091E800877F8093E800F8
:102C40000E940E038091E80080FFFCCF8091E3009A
:102C500080688093E30082E0111183E080936F032A
:102C600044C18058823008F040C180917303909134
:102C700074038C3D23E09207A1F583E08A838AE206
:102C800089834FB7F894DE01139620E03EE051E2CD
:102C9000E32FF0E050935700E49120FF03C0E2954A
:102CA000EF703F5FEF708E2F90E0EA30C0F0C79674
:102CB0008D939D932F5F243159F74FBF8091E8008A
:102CC000877F8093E8006AE270E0CE0101960E945F
:102CD000BA038091E8008B778093E80006C1C09624
:102CE000E7CF4091750350917603292F3327233086
:102CF000310509F444C078F52130310509F46FC07D
:102D00008BE390E0E8E8F4E02230310509F0EDC013
:102D10002091E800277F2093E800209177033091ED
:102D200078038217930708F49C0140E021153105D0
:102D300009F064C0411162C08091E80082FDC9CFF2
:102D400080916F03882329F2853019F28091E80081
:102D500083FFF2CFBECF21323105A9F122323105F6
:102D600009F0C3C04115510509F443C04130510574
:102D700009F0BBC082E390E0E6E1F4E0C9CF992717
:102D800081309105C1F0009759F0029709F0ADC06C
:102D9000E5EDF4E0E4918E2F90E0E5EDF4E007C07E
:102DA000E3E0F5E0E4918E2F90E0E3E0F5E00097BA
:102DB00009F49BC0ADCFE3EFF4E0E4918E2F90E0F7
:102DC000E3EFF4E0F4CF4115510571F041305105C6
:102DD00009F08BC089E090E0E3EBF4E099CF82E169
:102DE00090E0E3ECF4E094CF89E090E0EAE9F4E0ED
:102DF0008FCF80E490E0E8E4F4E08ACF80916F0325
:102E0000882309F466CF853009F463CF8091E80008
:102E100083FD5FCF8091E80082FD8ECF8091E80036
:102E200080FF84CF9091F3008091F200211531054D
:102E300019F08830910550F041E0089709F040E022
:102E40008091E8008E778093E80070CF44914093A2
:102E5000F1003196215031090196E8CF803809F010
:102E600044C08091E800877F8093E80080917003E0
:102E70008093F1009ECE811138C0109173031230FF
:102E8000A0F58091E800877F8093E800109370039D
:102E90000E940E03112311F084E005C08091E3002D
:102EA00087FDFACF81E080936F0342E061EC81E01F
:102EB0000E942D0342E261EC82E00E942D0380918A
:102EC0006F0313C080917303813079F481E09330F4
:102ED00009F080E080936E031092E9008091E80091
:102EE000877F8093E8000E940E038091E80083FFB3
:102EF0000AC08091E800877F8093E8008091EB0012
:102F000080628093EB00AA96E3E00C94A0270E94D5
:102F1000C0142FEF84E39CE0215080409040E1F703
:102F200000C0000088E19CE00FB6F894A89580935B
:102F300060000FBE90936000FFCF882321F00E94B5
:102F40000C080E9483140895882339F090914D0253
:102F5000982B90934D020E9483140895882309F4BE
:102F60004DC0823879F40E94480D81FF47C089E343
:102F70000E9420080E94831489E30E9413080E9483
:102F800083140895833859F40E94480D80FF36C099
:102F900083E50E9420080E94831483E5EECF8438E5
:102FA00059F40E94480D82FF29C087E40E9420083E
:102FB0000E94831487E4E1CF9CEF980F913AE8F2E6
:102FC00090E2980F983050F4877091E001C0990F0B
:102FD0008A95EAF7892F0E940C08D1CF9BE5980FBC
:102FE000933028F490E080E00E9469040895885AA4
:102FF000893120F490E080E00E9444040895CF934A
:10300000C82F8823C9F08238C9F40E94480D81FD79
:1030100013C089E30E9420080E9483142FEF87EEDB
:1030200093E0215080409040E1F700C0000089E328
:103030000E9413080E948314CF9108958338A1F44D
:103040000E94480D80FDF8CF83E50E9420080E9471
:1030500083142FEF81EE94E0215080409040E1F7FF
:1030600000C0000083E5E4CF8438A1F40E94480D3D
:1030700082FDE2CF87E40E9420080E9483142FEF94
:1030800081EE94E0215080409040E1F700C00000C4
:1030900087E4CECF8CEF8C0F813A68F4ECEDF1E051
:1030A0008191C817A1F121E0E23EF207C9F78C2F08
:1030B0000E942008BFCF80E28C0F883068F4C77070
:1030C00021E030E001C0220FCA95EAF780914D025D
:1030D000822B80934D02AECFEBE5EC0FE33040F452
:1030E000F0E0E75AFE4F808190E00E946904A4CF8F
:1030F000C85AC93108F0A0CFEC2FF0E0EE0FFF1F47
:10310000E45AFE4F808191810E94440495CF8C2F18
:103110000E9413080E948314CACF1F93CF93DF939A
:10312000182FEB010E94FF17209739F4812F0E947E
:10313000AE17DF91CF911F9108958FE99FE001971E
:10314000F1F700C000002197EFCF0F931F93CF93AB
:10315000DF93C62FD42F022FFC0182818823A9F090
:1031600060937B030E94380490937A0380937903E1
:10317000C77081E001C0880FCA95EAF70E94A417C2
:10318000DF91CF911F910F91089580917B03681378
:1031900034C08091790390917A030E941D04883C89
:1031A000910558F510E21D0FCD17B9F080E28C0F94
:1031B000883040F4C77081E001C0880FCA95EAF7F3
:1031C0000E949D17183048F481E09D2F977001C030
:1031D000880F9A95EAF70E94A41770E060E0802FAC
:1031E0000E948D18183060F6D77081E001C0880FFA
:1031F000DA95EAF70E949D17C3CFC77081E001C03E
:10320000880FCA95EAF7F6CF81110CC070E06623EB
:1032100031F060E089EA0E948D1880E0089560E056
:103220008AEAF9CF8130C9F770E0662319F060E0CF
:103230008EE4F1CF60E08BE4EECFA1E0B0E0E3E21A
:10324000F9E10C947E27EE24E394F12C00E712E0E0
:103250009E012F5F3F4F45E652E063E082E00E940F
:10326000D111C82E882339F100E080E01DC0D09034
:103270009002D00E2D2D30E0A90144545D4F7A010B
:10328000E1E0F0E0EC0FFD1FE00FF11D1081FA010D
:103290009081191BB12E1B149CF0912F17FD90E00B
:1032A000191B111118C00F5F90918F020917F8F2C6
:1032B00081110E9403088C2D2196E9E00C949A2735
:1032C000BA94F70180818F5F808360E08D2D0E942A
:1032D00004198C2DE0CF1F5FF7018081815080831E
:1032E00061E08D2D0E9404198C2DDBCFA5E0B0E0AC
:1032F000ECE7F9E10C947B277C01FC01838194814C
:10330000892B31F08081918189238F3F09F093C40B
:103310002596ECE00C9497270E944308182F682FFD
:1033200089819A810E94B60869817A81812F0E94E1
:1033300056068C01F7018281882309F4C1C402304A
:10334000F8E71F0709F47BC0A0F4011538E713075D
:1033500079F1013088E7180709F43FC0F801E85116
:10336000FC47E730F10508F099C0E55CF64D0C9498
:10337000F027043098E7190709F44DC080F10530B3
:10338000F8E71F0759F790915603892F8695869580
:1033900086958F5F8F719770843008F05EC0880FBC
:1033A000880F880F892B80935603809156031FC086
:1033B00083E00E94840D80914302877009F4A8CFB6
:1033C000F7018281882309F4A3CF8091A00282FFB4
:1033D0009FCF82E00E9402099BCF80E0EACF8091DC
:1033E0005603982F987F79F0885080935603887FF2
:1033F00091E009F490E08091560390FB80F980936E
:1034000056030E947E0D809156038695869586957B
:103410000E94A404D0CF80915603982F969596953C
:103420009695933040F49F5F990F990F990F87708D
:10343000892B80935603809156038160E0CF809161
:10344000560380FF07C08E7F809356030E947E0D37
:1034500080E0DECF0E949F0DAECF90935603A5CFA4
:1034600026E241EE61EEC7010E94A518A4CF27E233
:1034700045EE65EEF8CF26E241EE60EEF4CF27E2AE
:1034800045EE64EEF0CF26E241EE62EEECCF27E2AD
:1034900045EE66EEE8CF28E241E0EBCF10927B03E9
:1034A000C8019057839708F0D7C384E090E00E944A
:1034B00092289093A00280939F02F801E150F04778
:1034C000E232F10520F4EE5BF64D0C94F02780918A
:1034D0009F02816080939F0295C08091A0028860C6
:1034E0008093A0028FC080919F028260F3CF809171
:1034F0009F028460EFCF80919F028860EBCF809124
:10350000A0028160EDCF8091A0028260E9CF80911E
:103510009F028061DFCF80919F028062DBCF80912C
:103520009F028064D7CF0E94C01480919F02806860
:10353000D1CF80919F028C60CDCF8091A00283601B
:10354000CFCF80919F028E7FC5CF8091A002877FD1
:10355000C7CF80919F028D7FBDCF80919F028B7FCF
:10356000B9CF80919F02877FB5CF8091A0028E7FD7
:10357000B7CF8091A0028D7FB3CF80919F028F7EC5
:10358000A9CF80919F028F7DA5CF80919F028F7BD5
:10359000A1CF0E94C01480919F028F779BCF809112
:1035A0009F02837F97CF8091A0028C7F99CF8091DB
:1035B0009F0282FB992790F921E0922790FB82F9E4
:1035C00090FB83F987CF8091A002982F90959170FE
:1035D0008E7F892B90FB81F983CF90919F02892F59
:1035E0008F7B96FF806476CF0E94C01490919F02DB
:1035F000892F97FB87F980586DCF61E08EE090E0CE
:103600000E94982860919F027091A00284E090E04F
:103610000E94B6280E94C014CECE60E0EFCF9091F9
:103620009F02892F8F7E94FF806154CF90919F02DB
:10363000892F8E7F90FF81604DCF9091A002892FBE
:10364000877F93FF88604CCF85E315C38091E201AB
:10365000811104C089E20E9413080FC385E3FBCFE8
:103660008091510380FF17C08E7F8093510360913A
:1036700051037091520380915303909154030E941F
:103680009C0E0E944E058091CD0281608093CD02F8
:103690000E94D70990CE81608093510361E08695A6
:1036A0000E94A60F88CE46EE5FE060EF7FE00E94AA
:1036B000480581CE40EF5FE066EE7FE0F8CF4EE652
:1036C0005FE068E77FE0F3CF48E75FE06EE67FE02A
:1036D000EECF44E55FE061E67FE0E9CF41E65FE001
:1036E00064E57FE0E4CF4AE35FE067E47FE0DFCFBB
:1036F00047E45FE06AE37FE0DACF42E85FE064E955
:103700007FE0D5CF44E95FE062E87FE0D0CF61E0C1
:1037100081E0C6CF65E082E00E94FB0F4CCE68E0FE
:1037200086E0FACF6EE089E0F7CF64E18FE0F4CF76
:1037300067E185E1F1CF61E088E1B2CF62E289E142
:10374000EBCF61E083E2ACCF6AE285E2E5CF0E9495
:10375000C0142FEF34E38CE0215030408040E1F77B
:1037600000C000000E94B3096FEF7FEF90E080E09F
:103770000E94B6280E9487178091A00282FB8827AA
:1037800080F991E089270E94B110F70182810081C0
:103790001181882309F444C0C8010E944308D82E2F
:1037A000682FC8010E94B608B8018D2D0E945606E8
:1037B0000E947406B82E192F882EF701A2809580DA
:1037C00092949FE09922809143028770C1F0DA2C95
:1037D000AA20B1F0812F807F803421F080E28B0D10
:1037E000883068F08091A00282FF09C082E00E94C8
:1037F0000209809143028770DD24D3948111D12C7A
:10380000C12EC2948FE0C822FBE0FC1508F471C001
:10381000EC2DF0E0EC59F64D0C94F02780E0B3CF9E
:10382000C8010E948408D82EBFCF012F0F70107FCF
:1038300011F00295007FAA20B9F0002369F080E220
:103840008B0D883010F0811009C080914D02082B3B
:1038500000934D020E9483148B2D49C080914C022D
:10386000082B00934C02F6CF8B2D0E94AE1700233D
:1038700009F43FC080E28B0D883010F0811004C045
:10388000802F0E940C0806C0009580914C020823EE
:1038900000934C020E9483142CC0012F0F70107FE4
:1038A000103211F00295007F882089F021E0821605
:1038B00009F47CC0AA2009F486C0992009F47CC0D0
:1038C000F701858180FFC8CF8F70858375C02091F7
:1038D000A00222FD43C0AA20D9F1002339F0809133
:1038E0004D02082B00934D020E94831480E00E9439
:1038F000FF17EC2DE850FF0B349710F40E94480D91
:10390000DD20A9F08091430280FD11C0F7011282F1
:103910008595859585950E941E09C7010E94761997
:10392000809143028595859585950E94F00885E0F4
:10393000F701DE01119601900D928A95E1F7098158
:103940001A81C8010E948408B8010E945606E0CC82
:1039500080E00E94AE17002361F292CFAA20A1F06E
:1039600090914E02802F892B911003C00E94A417C2
:10397000C0CF31E09312FACF22FFBBCF891709F4F1
:10398000B8CF80934E02B5CF911006C00E940608B2
:10399000802F0E949D17ADCF81E0981609F4A9CF22
:1039A000802F0E949D170E940608A3CFAA2031F005
:1039B00095E0991508F49DCF802FD8CFE4E0E91564
:1039C00008F497CFE5CF992019F3F9E38F122CC1B2
:1039D0002FEF37EE83E0215030408040E1F700C008
:1039E000000022C1812F86958695837069F0813011
:1039F00009F07FCF8B2D912F9370A11002C080E032
:103A000090E00E94440475CF8B2D912F9370A110EC
:103A100002C080E090E00E9469046BCF912F937008
:103A200009F03FC0A11065CF4B2D429546954770D8
:103A3000440F440F8B2D8F7090E0042E02C0880F2E
:103A4000991F0A94E2F730E020E0B4FE09C02FE0AD
:103A500030E002C0220F331F4A95E2F720953095DF
:103A6000169516951370123099F078F440914F0224
:103A700050915002113039F0822B932B84239523DF
:103A80000E942E0936CF842B952B822B932BF8CFB7
:103A9000822B932B20914F02309150028227932743
:103AA000EFCF9695AA2011F0912F9170992309F4E8
:103AB00020CF4B2D429546954770440F440F8B2DD8
:103AC0008F7090E0042E02C0880F991F0A94E2F7CD
:103AD00030E020E0B4FE09C02FE030E002C0220F49
:103AE000331F4A95E2F72095309516951695137079
:103AF000123099F078F440919D0250919E0211305D
:103B000039F0822B932B842395230E94EB08F1CE6E
:103B1000842B952B822B932BF8CF822B932B2091E8
:103B20009D0230919E0282279327EFCF1F70AA201B
:103B300029F0812F0E941E098B2D18CF8B2D0E94FA
:103B40009D17812F0E94F008D4CE8B2D92EF8916FD
:103B500099F1981570F0E0EF8E16D1F0F1EF8F1615
:103B600091F0AA2009F45BC0911076CE812F8F715D
:103B700027C023EF821639F134EF8312F2CF809100
:103B8000A00282FD2EC0812F8F71AA20D9F218C009
:103B9000AA2069F084E0891508F4ABCE1F7181E09A
:103BA00090E002C0880F991F1A95E2F7B8CF95E010
:103BB000991508F49ECEF2CF812F8F71A110C2CF3C
:103BC0000E941E0996CE90E080E0AA2009F49DCFC5
:103BD0001F7181E090E002C0880F991F1A95E2F7EB
:103BE00094CFAA2089F01F71812F0E941E09809115
:103BF000A00282FF07C0E8E01E9FC001112483607D
:103C000080934302812FDCCF81E00E940209F1E022
:103C1000F91508F06ECE82E00E9402096ACE992062
:103C200039F0893309F4D4CE8B2D0E94AE1761CEC2
:103C3000812F8F7187CF85E0DE01119601900D9263
:103C40008A95E1F7F701228189819A81211164CB5C
:103C50000E948408182F68CB0631FCE71F0781F407
:103C600080914D028A7A91E009F490E09093E2010C
:103C70008111EACC89E20E9420080E9483149BCB28
:103C800003303CE7130709F46FCD50F401159CE7AE
:103C9000190709F45CCD01301C4709F46BCD75CDD3
:103CA0000B35FCE71F0709F4B9CD0C352CE71207DB
:103CB00009F462CD0A351C4709F067CD81E063CD78
:103CC000F801E851FC47E730F10508F44ECB063126
:103CD0002CE7120709F4BACC80914D028272F801E8
:103CE000E052F847E531F10508F04FCDE059F64DC7
:103CF0000C94F0271F93CF93DF9380911002807F65
:103D000009F049C080910D02882309F444C08091D4
:103D10004202D091110260910B0270910C02A091AD
:103D20000E02B0910F02C62FC72316E0D81799F1E3
:103D300090E0109711F0CF3F19F401968770F6CFFD
:103D4000189F9001199F300D1124F901EE5EFD4F6F
:103D500041814713F2CF40814613EFCF4281411199
:103D6000ECCF438154814A1B5B0B483C510528F73B
:103D7000809110028F70806180931002F901E95EDA
:103D8000FD4F80818F70806180838BE092E00E9484
:103D900076190E943908DF91CF911F910895A1E112
:103DA000B0E0E5EDFEE10C947D278C0185E0F801A3
:103DB000DE011D9601900D928A95E1F7F801E280EF
:103DC0008BE0A82E82E0B82E60910E0270910F0257
:103DD0006115710509F426C190910B0240910C0206
:103DE000892F84238F3F09F41DC120813181C38035
:103DF000D480F0900D02F601E61BF70BFF2009F4CA
:103E0000DCC080911002582F507FE83CF10508F08B
:103E10009FC051116BC0FE2C431314C0921312C0EB
:103E2000E11010C08F70806180931002C5010E9464
:103E3000761980911002F80185838F2D6196EAE052
:103E40000C949927C114D10429F0822F83238F3F2A
:103E500009F003C180E0F82FF170DF2E80FF3CC035
:103E6000809142024091110256E0841315C02D87C3
:103E70003E878D859E850E947708292F22952F7079
:103E80002230F0F0243018F59F70F1F0F8019581A0
:103E9000907FD1F4D12C1EC090E0589FF001599F23
:103EA000F00D1124EE5EFD4F6181361306C0608176
:103EB000261303C06281E6120FC001968770D5CF2A
:103EC0009F7011F0882331F3805E883018F3C801A9
:103ED0000E947619FD2CB1CFEE2009F4AECF80916F
:103EE0001002816080931002F12CA7CF431306C00B
:103EF000921304C0F801EE2009F479C0C8010E94B1
:103F00003309882309F1EE20F9F080911002803204
:103F100070F020910B0230910C0238872F831986A4
:103F2000DB86CA868C87CE0107960E94761986E0CA
:103F3000F801ABE0B2E001900D928A95E1F70E94A2
:103F40007A1EFF24F39479CFC8010E947619F9CF25
:103F500051110AC08BE092E00E94761986E0F501CB
:103F600011928A95E9F7C0CF43130FC092130DC089
:103F7000E1100BC0F8018583C8010E94761986E024
:103F8000F50111928A95E9F758CFC8010E943309CB
:103F90008823D1F2EE20C1F280911002803238F2F3
:103FA00020910B0230910C023A8329831B82DD821F
:103FB000CC828E83CE010196B8CFE83CF105F8F6AD
:103FC000FE2CEE2009F243131FC092131DC08091F6
:103FD000100280FD10C0982F907F69F0F801858352
:103FE000903F31F0982F907F905F8F70892B858361
:103FF000C8010E94761986E0F801ABE0B2E00190BA
:104000000D928A95E1F719CFC8010E9433098111F9
:104010008ECF80911002816080931002C8010E94AF
:1040200076190BCFEE2009F48FCFC8010E94330917
:10403000F82E882309F488CF86E0F801ABE0B2E0DF
:1040400001900D928A95E1F780910B0290910C02FC
:104050000E9477080E947A1EF0CE81E08E25FBCE6A
:10406000A7E1B0E0E6E3F0E20C9484274B8B5C8B95
:104070006D8B7E8B8F8B611110924C021A8A198A7C
:1040800085E0FE017396DE011D9601900D928A95E2
:10409000E1F786E0FE013D96DE01179601900D9254
:1040A0008A95E1F7CE0107960E94CF1E811112C0BA
:1040B00086E0FE013796DE01119601900D928A95F9
:1040C000E1F78A859B85892B29F088859F81892343
:1040D0008F3F81F516E08091420290911102891381
:1040E00017C06796E3E00C94A02796E0929FD0015A
:1040F000939FB00D1124AE5EBD4FFE01319601902D
:104100000D929A95E1F7809311020E943908E2CF4F
:10411000819FC00111248E5E9D4F0E94CF1E882377
:1041200001F38091420290E0019687709927809375
:104130004202D1CF2091110230E0C901019687706F
:104140009927409142024817190679F60E94C01437
:10415000109211021092420286E0EBE0F2E0DF01E1
:104160001D928A95E9F7B6CF1F920F920FB60F9264
:1041700011242F933F934F935F936F937F938F936C
:104180009F93AF93BF93CF93DF93EF93FF93D09120
:10419000E900DF708091EC00C82FC17080FDC0E89D
:1041A0001092E9008091F000877F8093F00078946E
:1041B0000E94D6141092E9008091F00088608093EC
:1041C000F000CD2BCF70C093E900FF91EF91DF910C
:1041D000CF91BF91AF919F918F917F916F915F919F
:1041E0004F913F912F910F900FBE0F901F901895F8
:1041F0001F920F920FB60F9211242F933F934F935C
:104200005F936F937F938F939F93AF93BF93EF933E
:10421000FF938091E10082FF09C08091E20082FF5C
:1042200005C08091E1008B7F8093E1008091DA00EE
:1042300080FF24C08091D80080FF20C08091DA00E8
:104240008E7F8093DA008091D90080FF9DC080E14D
:1042500089BD82E189BD09B400FEFDCF81E0809374
:104260006F0380916203811109C00E94BE020E9407
:104270005F038091E20084608093E2008091E1001E
:1042800080FF17C08091E20080FF13C08091E200A0
:104290008E7F8093E2008091E20080618093E20053
:1042A0008091D80080628093D80019BC85E080930B
:1042B0006F038091E10084FF2BC08091E20084FFB6
:1042C00027C080E189BD82E189BD89B5982F9170B1
:1042D00080FFFBCF8091D8008F7D8093D8008091A4
:1042E000E1008F7E8093E1008091E2008F7E8093D9
:1042F000E2008091E20081608093E200809170038F
:10430000882309F447C084E080936F0380916F0392
:104310008091E10083FF27C08091E20083FF23C0EA
:104320008091E100877F8093E10082E080936F03BA
:10433000109270038091E1008E7F8093E100809164
:10434000E2008E7F8093E2008091E20080618093A2
:10435000E20042E060E080E00E942D038091F000E6
:1043600088608093F000FF91EF91BF91AF919F9192
:104370008F917F916F915F914F913F912F910F900E
:104380000FBE0F901F90189519BC10926F031092DA
:10439000620374CF8091E30087FD93E090936F03F5
:1043A000B5CF78941F921FB61F9211248F939F93BD
:1043B000AF93BF9380915E0390915F03A0916003E0
:1043C000B09161030196A11DB11D80935E0390938E
:1043D0005F03A0936003B0936103BF91AF919F917E
:1043E0008F911F901FBE1F9018951F921FB61F928E
:1043F00011248F939F93AF93BF9380915D0381119D
:1044000013C080915E0390915F03A0916003B0910F
:1044100061034196A11DB11D80935E0390935F03DC
:10442000A0936003B0936103BF91AF919F918F916F
:104430001F901FBE1F901895CDB7DEB72A970FB6F5
:10444000F894DEBF0FBECDBF85B7806885BF85B746
:10445000806885BF84B7877F84BF0FB6F894A8951E
:1044600080916000886180936000109260000FBEB0
:1044700080E890E00FB6F89480936100909361001B
:104480000FBE8AEF95E09093D9018093D8010E94E6
:10449000BE020E945F038091E20084608093E2008C
:1044A000789480916F038823A1F01091E9001F7028
:1044B0009091EC00892F817090FD80E8182B10926C
:1044C000E9008091E80083FD0E94D6141F701093CC
:1044D000E90082E084BD93E095BD9AEF97BD80939B
:1044E0006E0010928B0210928C0210928D0210922C
:1044F0008E0287988F988FE891E00197F1F700C0BE
:1045000000008FB1881F8827881F80933C0180910D
:104510003C01882309F498C01092530188E08093ED
:1045200054010E94250D81110E94132690913C0197
:1045300081E098279093C002A82FA91BA093900216
:1045400090913C018093C10290913C0180938F0235
:1045500085988D9A86988E9AEFE8F1E03197F1F779
:1045600000C000002091C10242EC52E0FA018E2FFF
:10457000841B821708F46CC080913C0180913C013F
:1045800095E0811190E090939C0285E0891B8093D7
:104590009B0200E911E095E9E92E91E0F92ED8019E
:1045A0008D918D018F3F11F00E94FC05E016F10600
:1045B000B1F705E911E08DE9E82E81E0F82EF80168
:1045C00081918F018F3F11F00E94FC05E016F106EA
:1045D000B1F78AE0E4EAF2E0DF01282F1D922A9584
:1045E000E9F7E1E9F2E0DF011D928A95E9F790E051
:1045F00080E00E949228873E9E4F11F00E94231077
:1046000082E090E00E9484288093AE0284E090E0F3
:104610000E9492289093A00280939F020E94A2126F
:10462000EFE3FCE93197F1F700C000000E94A2120D
:104630008091A40280FF18C06FEF7FEF90E080E0D0
:104640000E94B6280E94B30988E08093530167CF87
:104650008FB185FB882780F97E9904C090E0892B73
:10466000819385CF92E0FBCF83E090E00E94842885
:1046700090E00E942E09259A2D9882E88093800070
:1046800089E1809381008FEF9FEF90938700809363
:1046900086000E9487100E9487108091A1028111DC
:1046A0003BC090E080E00E949228873E9E4F21F020
:1046B0000E9423100E940B1088E090E00E948C283A
:1046C0006093510370935203809353039093540368
:1046D0008091CD0283608093CD026E7F71F40E9441
:1046E0000B1088E090E00E948C2860935103709337
:1046F000520380935303909354030E9455050E94E4
:104700004E058091510380FF04C060E086950E94B1
:10471000A60F81E08093A1020E94250D811102C0A5
:104720000E9416268DE391E090935A0380935903DB
:10473000B8E16B2E712C1EEAC12E12E0D12E04E0DE
:10474000A02EB12C80916F0300E112E1853009F4B5
:1047500082C00E94A2120FEA12E0A4EAEA2EA2E0AE
:10476000FA2ED701F80191918D9142E0E93BF407CF
:1047700009F47DC09817B9F30E94250D282E912CBD
:10478000D7018D907D01F80131908F01381429F106
:10479000512C442443943824832D8421B1F02220C9
:1047A000A1F05E829F8291E0882D842109F490E03F
:1047B00098870E9438048160782F9A8789874E8174
:1047C0005F8168858A850E9430205394440CF8E00C
:1047D0005F12E2CFF8013197808293942AE092121F
:1047E000CFCF0E942C0463C080916F03843029F1E5
:1047F00080E00E94A40410925D0320E40FB6F894B8
:10480000A895609260000FBE2093600083B7817FFF
:10481000846083BF83B7816083BF7894889583B7B2
:104820008E7F83BF0FB6F894A89580916000886151
:1048300080936000109260000FBE80916E03882309
:1048400051F00E94A212E4EAF2E0819181117DC14F
:10485000CE16DF06D1F780916F03853009F4C4CFFF
:104860000E94C0140E9487100E94480D72CF9813B6
:1048700083CF0E9438048C018091A2029091A30200
:1048800008171907A1F08FEF89838A831B820E9482
:1048900038048160782F9D838C8349815A816B8194
:1048A0008D810E9430201093A3020093A2020E94E7
:1048B000250D8091CC02882309F464C08091CB023D
:1048C000E0915103E695E81BE093C702823009F0BE
:1048D0006FC0F0E0E350FE4FE4910E2F10E0FEEDCC
:1048E000EF2EFCE0FF2E8091C802882361F0109229
:1048F000C8020E94730D9093C6028093C502109265
:10490000CA021092C9020E94730DE091C502F09193
:10491000C6029C012E1B3F0B2F3F3F4798F520916D
:10492000BB022223B1F01092BB022091B902309158
:10493000BA02821B930B8F3F9F4758F4205D3A4881
:104940003093BA022093B9028091CD02886080939F
:10495000CD028090C9029090CA02E00FF11FF0933F
:10496000C602E093C50285EC92E0F70109958091BB
:10497000C9029091CA02892B29F4892819F081E093
:104980008093BB02E12C912C8091C102E81608F4BF
:104990007BC091100E9403080E94480D9091C402B0
:1049A000891709F4CFCE8093C4020E942C04CACE8A
:1049B000863059F4F0E0E650FE4FE4910E2F10E0FF
:1049C000EEECEE2EECE0FE2E8ECF893061F4E69513
:1049D000F0E0E950FE4FE4910E2F10E077E2E72E71
:1049E0007CE0F72E80CF8F3061F4E695F0E0EC505C
:1049F000FE4FE4910E2F10E061EAE62E6BE0F62EFA
:104A000072CF853159F4F0E0EF50FE4FE4910E2F54
:104A100010E05CE1E52E5BE0F52E65CF08E210E0EA
:104A20002AE9E22E2AE0F22E883109F45CCF8332A3
:104A300049F4EFEEF1E0059114914DE7E42E4CE0DE
:104A4000F42E51CF04EF11E09DE5E92E9AE0F92E06
:104A5000843209F448CF853281F48E2F63E00E94BE
:104A6000BC27E92FF0E0E451FE4FE4910E2F10E057
:104A700037EBE32E3DE0F32E36CF00ED17E088E173
:104A8000E82E84E0F82E2FCF0E2D10E0EFB1E5FBDD
:104A9000EE27E0F97E9951C080E08E2BD801AE530D
:104AA000BD4FEC919E2F9370891709F444C0EE0F0F
:104AB000EE0FE82BEC93F090C002FE0CEF70F0E0EC
:104AC000E356FE4F02541D4F8081D8019C91890FFF
:104AD0008C93812C843084F0EF2DF0E0E454FD4F72
:104AE00080818F5F80830E94250D882E882339F175
:104AF00060E08F2D0E940419F80180818D3F84F4BD
:104B0000EF2DF0E0E454FD4F8081815080830E94BE
:104B1000250D882E8823B1F061E08F2D0E940419A5
:104B2000D8018C91082E000C990BB5010E94DC274E
:104B3000F80180839828E39427CF82E0AECF8824C1
:104B40008394DACF88248394EBCF09BD19BD09B4CF
:104B500000FEFDCF8091D8008F7D8093D80080919A
:104B6000E00082608093E0008091E00081FDFCCF56
:104B70000E94C01470CE8EE1489B02C08150E1F7C4
:104B8000489BFECF0895589880E28A95F1F7589A8D
:104B90000895FC013BE03A95F1F798E020E080E0D1
:104BA00031E040E14A95F1F7880F489B02C08160EF
:104BB000232742E04A95F1F7000040E14A95F1F7DA
:104BC000915079F790E19A95F1F799B132E03A95E1
:104BD000F1F7000040E14A95F1F7917092272081AA
:104BE000920F90830895A1E0B0E0E9EFF5E20C9414
:104BF000812719828C017C01E60EF11C0E151F0520
:104C000041F481E09981911180E02196E6E00C94D5
:104C10009D270E94BB25CE0101960E94C925F8015F
:104C200081938F01EBCF509A589A08955098589AD3
:104C3000E89AE9E6F0E080818C7F808308956150F6
:104C4000770B91E001C0990F6A95EAF720E031E017
:104C5000911108C0222391F0589A80E28A95F1F7C9
:104C600058980895492F482339F0589A232740E24D
:104C70004A95F1F79695ECCF5898F9CF5898EDCF23
:104C8000FF920F931F93CF93DF93EC018C01060FDC
:104C9000111DC017D10729F4CDB7DEB7E5E00C949C
:104CA0009E27F9900E94C32568E08F2D0E941F2641
:104CB000F0CF1F920F920FB60F9211240F931F93F4
:104CC0002F933F934F935F936F937F938F939F9314
:104CD000AF93BF93EF93FF93CF93DF930F92CDB733
:104CE000DEB719820E94BB25CE0101960E94C9251C
:104CF000082F069506950695282F22952570902F4A
:104D00009570290F922F937026952695920F9827CC
:104D100097708981982B09F05CC0083008F059C061
:104D200080E18A95F1F7589A509A82E08A95F1F7D6
:104D300000C0589888E0089F80011124D801AC5F1A
:104D4000BE4F1696ED91FC9117973097A9F06091A0
:104D50008E0170918F0114962D913C911597260F1D
:104D6000371F11968D919C911297680F791F13969A
:104D70004C9113978C910995F801EC5FFE4F63817C
:104D8000662351F020918E0130918F0184819581AD
:104D9000820F931F0E9440260E94C32580E18A95BE
:104DA000F1F758985098589A80E18A95F1F7F801F0
:104DB000EC5FFE4F6081662351F020918E013091AF
:104DC0008F0181819281820F931F0E94F3250E949F
:104DD000BB250F90DF91CF91FF91EF91BF91AF91E4
:104DE0009F918F917F916F915F914F913F912F9103
:104DF0001F910F910F900FBE0F901F9018950F935A
:104E00001F93CF93DF93EC0108970CF04CC0F894FC
:104E1000509A589885E08A95F1F700009C2F969556
:104E200095708C2F8570980F892F83709695969525
:104E300023E0CC0FDD1F2A95E1F7980F8E01092B97
:104E40000E94C32500C068E0802F0E941F2680E1D9
:104E50008A95F1F75098589A489B1EC087E090E0D9
:104E600048991CC0FE01EC5FFE4F63816623F9F098
:104E700020918E0130918F0184819581820F931F43
:104E80000E94F325811113C0509A589A7894DF91AB
:104E9000CF911F910F91089500C0DECF019729F4A3
:104EA000509A589A789480E0F2CF00C0D9CF0E94EF
:104EB000BB2580E28A95F1F75898509A80E18A954F
:104EC000F1F7CC5FDE4F6881662351F020918E01AF
:104ED00030918F0189819A81820F931F0E94402611
:104EE0000E94C325789481E0D2CF2F923F924F92B7
:104EF0005F926F927F928F929F92AF92BF92CF926A
:104F0000DF92EF92FF920F931F93CF93DF93CDB772
:104F1000DEB7CA1BDB0B0FB6F894DEBF0FBECDBFEA
:104F200009942A88398848885F846E847D848C84BB
:104F30009B84AA84B984C884DF80EE80FD800C81C4
:104F40001B81AA81B981CE0FD11D0FB6F894DEBFA7
:104F50000FBECDBFED010895DB018F939F930E949B
:104F6000EB28BF91AF91A29F800D911DA39F900D43
:104F7000B29F900D11240895991B79E004C0991FE8
:104F8000961708F0961B881F7A95C9F780950895A3
:104F9000AA1BBB1B51E107C0AA1FBB1FA617B7075F
:104FA00010F0A61BB70B881F991F5A95A9F780957B
:104FB0009095BC01CD01089597FB072E16F400943F
:104FC00007D077FD09D00E94C82707FC05D03EF422
:104FD000909581959F4F0895709561957F4F0895A5
:104FE000EE0FFF1F0590F491E02D09940E942029F7
:104FF000332312F48A1B9B0B0C9400280E94202957
:10500000B7FF0895821B930B08958F929F92AF92E2
:10501000BF92CF92DF92EF92FF92CF93DF93EC019A
:10502000688179818A819B8161157105810591056E
:1050300021F464E279ED8BE597E02DE133EF41E077
:1050400050E00E94CC2849015A019B01AC01A7EA1B
:10505000B1E40E94EB286B017C01ACEEB4EFA5013A
:1050600094010E94F928DC01CB018C0D9D1DAE1D21
:10507000BF1DB7FF03C00197A109B048888399837A
:10508000AA83BB839F77DF91CF91FF90EF90DF9052
:10509000CF90BF90AF909F908F9008950E94052869
:1050A000089580E091E00E9405280895B0E0A0E016
:1050B0008093000190930101A0930201B09303013A
:1050C0000895FC014150504030F001900616D1F790
:1050D0003197CF010895882799270895FB01DC01B6
:1050E00004C08D910190801921F441505040C8F7BF
:1050F000881B990B0895FB01DC0102C001900D9201
:1051000041505040D8F70895F999FECF92BD81BD26
:10511000F89A992780B50895A6E1B0E044E050E000
:105120000C94BE28A8E1B0E042E050E00C94BE2808
:10513000262FF999FECF92BD81BDF89A019700B450
:10514000021639F01FBA20BD0FB6F894FA9AF99AF0
:105150000FBE08950396272F0E9499280E94982831
:10516000252F0E949928242F0C9499280196272FE7
:105170000E9499280C949828DC01CB01FC01F99934
:10518000FECF06C0F2BDE1BDF89A319600B40D9293
:1051900041505040B8F70895052E97FB1EF4009437
:1051A0000E94E32857FD07D00E94FE2807FC03D089
:1051B0004EF40C94E32850954095309521953F4F3F
:1051C0004F4F5F4F089590958095709561957F4FF3
:1051D0008F4F9F4F08950E942029A59F900DB49F47
:1051E000900DA49F800D911D11240895B7FF0C947C
:1051F000EB280E94EB28821B930B0895A1E21A2E44
:10520000AA1BBB1BFD010DC0AA1FBB1FEE1FFF1F6A
:10521000A217B307E407F50720F0A21BB30BE40BBA
:10522000F50B661F771F881F991F1A9469F7609501
:105230007095809590959B01AC01BD01CF010895BB
:10524000A29FB001B39FC001A39F700D811D1124C7
:10525000911DB29F700D811D1124911D0895F89428
:10526000FFCFB515DD157517DD157517101631163D
:1052700075172E173B173B1A3F1A301A371A431A65
:10528000471A4B1AA11A161BA91A731A771AAD1AC4
:105290007B1AB11ABD1A871A0F1B8B1AC11A8F1AE3
:1052A000C51AED1A931AC91AF41A991ACF1AD71AED
:1052B0007F1AB51A831AB91A9D1AD31AE31AFD1A5E
:1052C0000D1B6D1AA51A1D1B151C151C4D1C4D1C04
:1052D000F21C791C791C791C0E1D961DA51DA51D9F
:1052E000301B531B5A1B5F1B641B691B6E1B731BFC
:1052F000781B7D1B821B871B8A1B8F1B921B951B98
:0A530000981B9B1B9E1BA11BA41B06
:10530A00010000000000000100000000000000058C
:10531A00010000000000000106000000000000017A
:10532A00070000000408000000000000010C000053
:10533A0000000000080D000000000000011A049F90
:10534A00091904980901191A1B1C1D1E1F20212264
:10535A00010201001000101001818283E200E900BD
:10536A00EA00B500B600B700CD008301CC008A017F
:10537A009201940121022302240225022602270215
:10538A002A02B300B4006F0070009F01CB016902CA
:10539A003132673497F4F1F0373392939500FF0175
:1053AA0000010000FFFF0000010001FF00000102F0
:1053BA000202020606060909090909090F0F0F0F59
:1053CA000F0F151515181919191919191919191964
:0853DA002324252525252525A6
:00000001FF
